:020000040800F2
:10000000783A00209D0100080F3D00084D3300089C
:100010000D3D0008250D00080D46000800000000F9
:1000200000000000000000000000000005010008C2
:10003000890E000800000000490100085140000836
:10004000B7010008B7010008B7010008B7010008B0
:10005000B7010008B7010008B7010008B7010008A0
:10006000B7010008B7010008B7010008B701000890
:10007000790D0008B7010008B7010008B7010008B2
:10008000B7010008B7010008B7010008B701000870
:10009000B7010008B7010008B7010008B701000860
:1000A000B7010008B7010008B7010008B701000850
:1000B000B7010008B7010008E5400008B7010008D3
:1000C000B7010008B7010008B7010008B701000830
:1000D000B7010008B7010008F5450008014600080F
:1000E0008B0E0008B7010008B7010008DFF810D038
:1000F00000F0AAFC00480047F9620008AFF3008056
:10010000783A0020224B19680868B0E8F00F80F3B5
:100110000988BFF36F8F4FF0000080F311884EF015
:100120000D0E70470000000006480068006880F36C
:10013000088862B661B6BFF34F8FBFF36F8F00DFE1
:1001400000BF00BF08ED00E0EFF30980BFF36F8F41
:100150000F4B1A6820E9F00F106008B54FF05000FF
:1001600080F31188BFF34F8FBFF36F8F07F0AEFF9F
:100170004FF0000080F31188BDE808401968086856
:10018000B0E8F00F80F30988BFF36F8F704700BFAE
:1001900024000020EFF305807047000006488047E8
:1001A00006480047FEE7FEE7FEE7FEE7FEE7FEE75C
:1001B000FEE7FEE7FEE7FEE7E3400008ED0000088B
:1001C000202A04DB203A21FA02F00021704721FAAC
:1001D00002F3D040C2F12002914008431946704713
:1001E00000487047B891000840EA01039B0703D01C
:1001F00009E008C9121F08C0042AFAD203E011F866
:10020000013B00F8013B521EF9D27047D2B201E027
:1002100000F8012B491EFBD270470022F6E710B50B
:1002200013460A4604461946FFF7F0FF204610BD64
:10023000F0B480EA0102D40F4200B2EB410F02D2C7
:100240000246084611464A0042D0C30DDDB2C1F352
:10025000C752AD1A202D35DAC1F3160141F4000260
:1002600004B15242C5F1200602FA06F12A411044B7
:10027000B3EBD05F23D0C4B1012DA0EBC35009DC98
:10028000F0BC4FF0004202EAC352DBB200F50000BE
:1002900000F08FBA400000F1807000EBC350A0F175
:1002A000807040EAD170490009E0490841EAC07114
:1002B000A0EBC35000F50000400800EBC350F0BCB9
:1002C00000F06EBA6142012202EB4101001BF6E729
:1002D000F0BC704781F00041AAE780F00040A7E73A
:1002E00080EA010210B502F00043400022D04A002B
:1002F0001FD0010E01EB1261C0F35600C2F356028B
:1003000040F4000042F40002A0FB022000047F3908
:10031000140400D0401C50EA124001D44000491E91
:10032000C2B20C0604EBD010401C4008802A02D058
:1003300003E0002010BD20F00100002900DA0020B9
:10034000184310BD30B480EA010202F0004530F0DD
:10035000004221F0004013D090B1C30DD40DC2F380
:100360001601C0F31600E41A41F4000140F4000243
:100370007D34914201D3641C00E04900002C02DA74
:1003800030BC002070474FF400000023914201D39D
:10039000891A034340084FEA4101F7D151B1914214
:1003A00002D14FF0004105E002D24FF0010101E01F
:1003B0006FF0010103EBC450284430BC00F0F0B9E9
:1003C0002DE9FE4F804681EA0300C00F0C460090E5
:1003D00021F0004123F00045B8EB0200A94105D20D
:1003E0004046214690461C460B46024623F00040FC
:1003F000104347D0270DC7F30A00C3F30A510290F8
:10040000401A019040286BDAC3F3130040F4801BBC
:100410000098924620B10023D2EB030A63EB0B0B4A
:1004200001985946C0F14002504600F098F906463E
:100430000D4650465946019A00F0A0F910EB08000D
:100440006141002487EA115284EAE7731A4340D0DD
:10045000009A62B3019A012A4FEA075215DC001B89
:1004600061EB02014FF0004202EA0752CDE900427F
:10047000001C41F5801132462B4600F0F5F903B01F
:10048000BDE8F08F40462146F9E7001B61EB020111
:10049000001C41F5801300185B412018A2F50017DD
:1004A00047EB030140EAD570B6196D4111E06D08C4
:1004B0004FEA360645EAC0754FEA0752001B61EB6A
:1004C0000201001C41F5801149084FEA3000001973
:1004D000514132462B4603B0BDE8F04F00F0B5B9AC
:1004E0000098012240000023D0EB020263EBE0738E
:1004F000009821464FEAE074B8EB000061EB04017C
:10050000E9E783F000435BE781F0004158E72DE91C
:10051000F04D81EA030404F0004B21F0004514463D
:100520004FF0000A23F0004150EA050220D054EABF
:1005300001021DD0C5F30A570246C5F31303C1F3E8
:100540001300C1F30A5640F4801543F48013A7EB5F
:100550000608101BD64608F2FD3873EB050002D3DF
:1005600008F1010801E092185B41B8F1000F03DACD
:1005700000200146BDE8F08D00204FF480110646B2
:1005800084460EE0171B73EB050705D3121B63EBC4
:10059000050306434CEA010C49084FEA3000921863
:1005A0005B4150EA0107EDD152EA030012D082EA22
:1005B000040083EA0501084305D0101BAB4106D2B5
:1005C0000122002306E000224FF0004302E06FF01A
:1005D000010253101AEB06004CEB085110EB0A0015
:1005E00041EB0B01BDE8F04D00F02FB9C10F80EADF
:1005F000E0700844CA079623002100F0DAB8962379
:100600000022114600F0D5B80EB5C10F80EAE070A7
:100610000844CA07002140F233438DE80E000A4621
:100620000B4600F021F903B000BD00F0004220F0BD
:100630000040C10DC0F3160040F400007F2901DA2C
:1006400000207047962903DCC1F19601C84001E003
:1006500096398840002AF4D04042704700F00042AA
:1006600030F000400AD0C10D01F56071C0F31600F2
:1006700042EA0151C2084007114370470020014679
:10068000704701F0004330B421F0004150EA01020C
:1006900006D00A0DA2F56072C1F31301002A02DC34
:1006A00030BC00207047440F44EAC104C100E01888
:1006B00030BC00EBC25000F073B80000002801DB32
:1006C000C0F10040002901DBC1F1004188427047C0
:1006D00030B50B46014600202022012409E021FA12
:1006E00002F59D4205D303FA02F5491B04FA02F50F
:1006F0002844151EA2F10102F1DC30BD2DE9F05FA6
:100700000546002092469B46884606468146402480
:100710001BE02846414647462246FFF751FD534617
:100720005A46C01A914110D311461846224600F08D
:1007300016F82D1A67EB01084F46224601200021CA
:1007400000F00DF817EB00094E41201EA4F1010442
:10075000DFDC484631462A464346BDE8F09F202A62
:1007600004DB203A00FA02F1002070479140C2F108
:10077000200320FA03F3194390407047202A06DB38
:10078000CB17203A41FA02F043EAE07306E041FA5F
:1007900002F3D040C2F1200291400843194670474D
:1007A0000029A8BF7047401C490008BF20F0010085
:1007B000704710B4B0FA80FC00FA0CF050EA010463
:1007C00004BF10BC704749B1CCF1200421FA04F4F5
:1007D00011FA0CF118BF012121430843A3EB0C01CE
:1007E000CB1D4FEA00614FEA102042BF002010BC31
:1007F000704700EBC35010440029A4BF10BC7047E1
:10080000401C490008BF20F0010010BC704710B523
:1008100041000CD0C0F3C751962908DC7E2909DCC1
:1008200006DB410204D000F0004040F07E5010BDD5
:10083000002010BDC1F19604C4F1200100FA01F1BD
:10084000E040FFF7ADFFA04010BD10B5141E73F1DE
:10085000000408DA401C41F1000192185B411A4380
:1008600001D120F0010010BD2DE9F04D92469B46CC
:1008700011B1B1FA81F202E0B0FA80F22032904672
:10088000FFF76DFF04460F4640EA0A0041EA0B01FC
:1008900053465A46084313D0114653EA010019D073
:1008A000C8F140025046FFF78BFC05460E46504605
:1008B00059464246FFF753FF084305D0012004E0A4
:1008C00020463946BDE8F08D0020054346EAE07633
:1008D0002C4337430A986305E40AA0EB0800002282
:1008E000FD0A44EA47540A3002D500200146E9E7F0
:1008F000010510196941DDE9084500196941BDE8A4
:10090000F04DA2E72DE9FE4F81EA030404F0004414
:1009100021F0004100944FF0000B23F0004350EA17
:1009200001045ED052EA03045BD0C3F30A54C1F35E
:100930000A552C44A4F2F3340194A0FB0254C1F3F1
:10094000130141F48011C3F3130343F4801301FB3B
:10095000024400FB034E840A970A44EA815447EAA2
:100960008357A4FB076802958D0A05FB07854FEAAC
:10097000932C04FB0C542705029D4FEA065847EAC6
:100980001637B5EB08056EEB070C870E920E47EA9B
:10099000811742EA8312A7FB0201B6EB0B0164EB5D
:1009A00000042B0D43EA0C335E1844EB1C50DA466E
:1009B0005146E7FB0201C5F313044FEA0B3343EA48
:1009C00014534FEA0432019C43EA0603A4F10C04D9
:1009D0000294009CCDE900B4FFF746FF03B0BDE8E8
:1009E000F08F00200146F9E7C1F30A52C1F3130169
:1009F00040F2FF3341F480119A4202DA00200146AE
:100A0000704740F233439A42A2F2334202DC524230
:100A1000FFF7D6BBFFF7A3BE30B5041E71F100048B
:100A200004DB4FF00044404264EB0101141E73F1FB
:100A3000000405DB1C464FF00043524263EB040305
:100A4000994208BF904230BD064C074D06E0E06871
:100A500040F0010394E8070098471034AC42F6D305
:100A6000FFF748FBC8910008E8910008420005D054
:100A7000C0F3C7525242914201DC0020704700EBA4
:100A8000C150704770B58C1810F8015B15F0070362
:100A900001D110F8013B2A1106D110F8012B03E017
:100AA00010F8016B01F8016B5B1EF9D12B0705D41F
:100AB0000023521E0DD401F8013BFAE710F8013B68
:100AC000CB1A921C03E013F8015B01F8015B521E84
:100AD000F9D5A142D8D3002070BD000070B50446FE
:100AE00000688168C943C90717D1816821F00101F5
:100AF000816000F023FF05460AE000BF00F01EFF02
:100B0000401B022804D920688068C043C00706D073
:100B100020688068C043C007F0D0002070BDA06A84
:100B200040F01000A062E06A40F00100E0620120A5
:100B300070BD0000F8B50026044600960068816884
:100B4000C943C9072DD0816841F001018160164871
:100B500016490068B0FBF1F000E0401E009000284C
:100B6000FBD100F0EBFE054616E000BF00F0E6FE0C
:100B7000401B022810D920688068C043C0070BD0F2
:100B8000A06A40F01000A062E06A40F00100E0625C
:100B900084F824600120F8BD20688068C043C00745
:100BA000E4D10020F8BD00002000002040420F00EA
:100BB0002DE9F041514C03212078012806D002286C
:100BC00006D0032806D0042806D110E0217103E0E6
:100BD000052000E00820207162780226012700200D
:100BE000062A0ED2DFE802F00D0506080A0C0C20DA
:100BF000F1E70421617104E0667102E0677100E0D1
:100C00006071A2784FF07E51052A0CD2DFE802F025
:100C1000030508131600A16005E04FF08D4201E0C6
:100C20004FF08C42A260E278062A16D2DFE802F08A
:100C3000090B0D0F11134FF08B42F3E74FF08A426F
:100C4000F0E7A16009E02E4906E02E4904E02E49B4
:100C500002E02E4900E02E49E1602E4D6870A87038
:100C60002D48E8612D4828622D486862202028859B
:100C7000284604F057FE00283ED1696A14208847B0
:100C8000284604F062FC002836D1696A02208847B1
:100C90002B4601221946002004F013FC00282BD11A
:100CA000092068712179A97111212971EE71687388
:100CB0006079A87315202873EE73284604F0C5FDEB
:100CC000002819D1696A0220884706F0B7FE00287B
:100CD00012D1696A0220884705F14E000A21077087
:100CE0004170418821F4FB7141F00901418029469E
:100CF000BDE8F04104F057BCBDE8F081A40000203D
:100D00003333834333330343333383423333034235
:100D100033338341DC310020B53E0008E53E000856
:100D2000695F0008FEE700002DE9F04190460A46A1
:100D300004461F460E4E19461046FFF7D1FA2146CB
:100D4000FFF776FA054639464046FFF7C9FA2146CD
:100D5000FFF76EFA0749FFF7C3FA04463146284603
:100D6000FFF7BEFA2146BDE8F041FFF761BA000087
:100D7000CDCC4C3D3333733F014800F0A3BB0000A2
:100D80007C04002030B590F840500124AC40C56B85
:100D90006C60046863604368102B036803D099603B
:100DA0000068C26030BD9A600068C16030BD00005C
:100DB0002DE9F05F0D460646934623491046FFF79E
:100DC000C1FA224C8246D4E9010104F0BFF8DFF8F1
:100DD00080804146FFF784FADFF878904946FFF7B4
:100DE000B1FA5246E16802F0C3FC80F00047A81B4C
:100DF000FFF7FCFB1849FFF7A5FA5946FFF7A2FADF
:100E00001649FFF79FFA4146FFF76AFA4946FFF78E
:100E100099FA6269124C01465346A06CFFF784FFB1
:100E200080464FF0FF31A06B07F044FD6764C4F8C3
:100E300048807019E064A06BBDE8F05F00231A469B
:100E4000194607F08BBB000000007A4434340020C0
:100E500000003443DB0F494003BAC5403333333E0F
:100E6000BC0000200648016841F08071016005481F
:100E700000214160016841F00101016070470000FC
:100E8000FCED00E0001000E070474FF4804000F0FF
:100E90004BBC72B6FEE70000F8B50025044600958D
:100EA00090F8240001280BD0012084F8240020466B
:100EB000FFF714FE2046FFF73DFE060002D050E08B
:100EC0000220F8BDA06A20F4885040F00200A06221
:100ED000022001F0B3F825490968B1FBF0F04000A9
:100EE00000E0401E00900028FBD12068816841F09E
:100EF0000801816000F022FD074608E000F01EFDB9
:100F0000C01B0A2803D920688068000715D4206810
:100F100080680007F2D42068816841F00401816094
:100F200000F00CFD074612E000F008FDC01B0A2887
:100F30000DD920688068400709D5A06A20F002001A
:100F400040F01000A06284F824500120F8BD206811
:100F500080684007E8D4A06A20F0020040F0010059
:100F6000A06284F824503046F8BD00002000002024
:100F7000F8B50024009490F824202546012A12D0C8
:100F8000012280F824204A681F23072A0DD2066810
:100F9000776B521E02EB820293409F430B68934093
:100FA0001F43776319E00220F8BD06680D2A0AD2B4
:100FB000376BD21F02EB820293409F430B68934032
:100FC0001F43376309E0F76A0D3A02EB8202934050
:100FD0009F430B6893401F43F7620A680723066824
:100FE0000A2A0AD3F7680A3A02EB420293409F4367
:100FF0008B6893401F43F76008E0376902EB4202B9
:1010000093409F438B6893401F4337610A68102ABF
:1010100001D0112A20D1124B02689A4217D193684D
:101020001B0219D4936843F40003936009681029E4
:1010300012D10C490C4A0968B1FBF2F101EB8101B4
:10104000490000E0491E00910029FBD104E0816ABB
:1010500041F020018162012480F824502046F8BD2F
:10106000002401402000002040420F000068C06CB6
:10107000704700002DE9F0414FF0000704003D46A5
:101080007ED0A06A002628B9E66284F82460204653
:1010900000F07EF82046FFF721FDA16AC90600D4C2
:1010A00020B1A06A40F01000A06269E0A16A21F4BA
:1010B000885141F00201A1626268E169237B0A4321
:1010C00047EA43010A43A1684FF48077B94209D047
:1010D000012907D05FF0000194F814C0BCF1010FA2
:1010E00002D00AE03946F7E7F3B1A36A43F02003E0
:1010F000A362E36A43F00103E3622368D3F804C008
:101100002CF4694C4CEA010CC3F804C021688B68CC
:10111000DFF870C003EA0C0313438B60A168B94287
:101120000BD0012909D00CE0DFF85CC0A3690CEBFF
:1011300043330B4343F40061DFE7218A0D05A5F536
:1011400080152168CB6A23F470032B43CB6221689E
:1011500089680E4B1940914208D1E662A16A21F0DC
:10116000020141F00101A162BDE8F081A06A20F016
:10117000020040F01000A062E06A40F00100E0626E
:101180000120F1E7FDF7E1FF00E0FFFFFE0E1FFF8A
:1011900000B585B000210091019102910391006892
:1011A0000E49884218D10E48816941F4007181616D
:1011B000816901F400710491816941F00401816148
:1011C0008069694600F004000490402000900320EC
:1011D0000190044800F0B4FA05B000BD00240140BD
:1011E00000100240000801402DE9F84300270D4699
:1011F0000446009700F0A2FB804620688168C9057C
:1012000008D5A06A40F02000A06284F82470012074
:10121000BDE8F8834168C90503D4C06A10F4700FB3
:101220002AD0022000F00AFF3B490968B1FBF0F622
:101230002068036939490B424FEA61014FEAA11264
:101240001FD1C3684FEA611C13EA0C0F19D103695F
:101250000B4225D1C068104222D1142023E0681C23
:101260000AD02DB100F06AFBA0EB0800A84203D918
:1012700020680068800725D5206800688007EED5C3
:101280002DE003690B4202D1C168114206D0026908
:1012900023490A4206D1C068084203D1542002E023
:1012A000292000E0FC204643009816E0681C11D07D
:1012B0002DB100F043FBA0EB0800A8420AD900982A
:1012C000B04207D2A06A40F00400A06284F8247003
:1012D00003209DE70098401C0090B042E6D32168AF
:1012E0006FF012000860A06A40F40070A0622068ED
:1012F0008068C0F3424007280CD1207B50B9A06A17
:1013000020F48070A062A06AC00403D4A06A40F0F8
:101310000100A06200207BE72000002024499224E5
:101320004992240070B5044690F8240001280DD09D
:10133000012084F824002046FFF7FCFB02004FF058
:10134000000005D084F82400104670BD022070BD56
:10135000A16A40F20123994341F48071A1621F4DBB
:1013600023681F49AB4218D10E6816F4702F14D0B1
:10137000A66A46F48016A6620E68760505D5A66AAA
:1013800026F4005646F48056A662A66AF6040AD5EC
:10139000E66A26F00606E66206E0A66A26F48016ED
:1013A000A6625E68E9E7E06284F824006FF002005C
:1013B000186020688368C3F34243072B05D1A84215
:1013C00008D1096811F4702F04D0816841F48011AC
:1013D0008160B9E7816841F4A001F9E70028014084
:1013E0000424014010B590F821100022022905D0F4
:1013F0000421816380F82020012010BD01680B6862
:1014000023F00E030B6001680B6823F001030B60EF
:1014100090F84030C46B012101FA03F3636080F857
:10142000211080F82020104610BD000010B590F863
:1014300021100024022903D00421816301243DE00E
:1014400001680A6822F00E020A6001680A6822F048
:1014500001020A601A4A0168914201D1012121E08A
:10146000174A1432914201D110211BE0144A28324C
:10147000914201D1891515E0114A3C32914201D1C6
:1014800089140FE00E4A5032914202D14FF480315C
:1014900008E00B4A6432914202D14FF4801101E01E
:1014A0004FF08071064A083A5160012180F82110FE
:1014B000002180F82010416B01B18847204610BD03
:1014C000080002402DE9F05FC16B0C6801680B68F1
:1014D000D0F840C0042202FA0CF2494DDFF824A1F2
:1014E000494E4A4FDFF828B1DFF828E122422CD0DC
:1014F0005A072AD50A68920603D40A6822F0040221
:101500000A600168A94201D1042219E0514501D1C4
:10151000402215E0B14202D14FF4806210E0B9429E
:1015200002D14FF480420BE0594502D14FF48022A2
:1015300006E0714502D14FF4800201E04FF0806275
:101540002F4908394A60C16A3BE04FF0020808FAA7
:101550000CF818EA040F4FF000094FF0010235D0E3
:101560005FEA837832D50B689B0605D40B6823F0BD
:101570000A030B6080F821200168A94201D10222F0
:1015800019E0514501D1202215E0B14202D14FF4BA
:10159000007210E0B94202D14FF400520BE05945FD
:1015A00002D14FF4003206E0714502D14FF400122F
:1015B00001E04FF00072124908394A6080F820902B
:1015C000816A00291AD0BDE8F05F0847082505FAAE
:1015D0000CF5254212D01B0710D50B6823F00E0323
:1015E0000B6090F84010C36B02FA01F159608263FE
:1015F00080F8212080F82090016BE2E7BDE8F09FA1
:10160000080002401C00024030000240440002403A
:10161000580002406C00024030B528B308C8134996
:1016200014221944B1FBF2F18900C16310498163AE
:10163000022141771A6843F6F0718A43D0E9001419
:101640002143D0E902452C432143046921434469E5
:101650002143846921431143196000214163012220
:1016600042770177084630BD012030BDF8FFFDBF4D
:101670000000024070B5044690F8200000250128C3
:101680000CD0012084F8200094F821600020012E65
:1016900006D084F820000225284670BD022070BDC7
:1016A000022684F82160A0632068066826F00106FF
:1016B00006602046FFF766FBE06A002820680168A4
:1016C00002D041F00E0106E021F004010160206823
:1016D000016841F00A0101602068016841F00101E0
:1016E0000160D9E738B5044607F0A2FA022815D1FF
:1016F000B4F5804F12D10020009009486A460121BC
:10170000006806F091FD0098002807D005494FF0C9
:1017100080500860BFF34F8FBFF36F8F38BD00005C
:10172000F800002004ED00E0044910B50A68024208
:1017300002D00860FFF7D6FF10BD0000140401407E
:101740002DE9F84FDFF8B8910024A9F1040B2346E6
:101750000F2709F1040AABF1040EC9E00125A540E9
:101760002A40AA427DD1674ED1F804C0ACEB0608EE
:10177000B44532D014DCBCF1030F3AD009DCBCF123
:10178000000F2AD0BCF1010F1CD0BCF1020F31D1E7
:101790001DE0BCF1110F17D0BCF1120F2AD119E0D6
:1017A000B8F5881F19D006DCB8F5803F15D0B8F51C
:1017B000801F1FD111E0B8F5001F0ED0B8F5041F2F
:1017C00018D10AE0CB6815E0CB681B1D12E0CB688E
:1017D00008330FE0CB680C330CE08B682BB1012B86
:1017E0004FF0080303D0456104E0042302E00561E3
:1017F00000E00023FF2A01D8064601E000F10406BC
:101800004FEA840501D9A5F12005D6F8008007FA32
:1018100005FC28EA0C0803FA05F548EA0508C6F8AD
:1018200000804D68ED0062D5374DAE6946F0010687
:10183000AE61AD6924F0030605F001050095334D56
:1018400006EB050CDCF80850A607360F07FA06F879
:1018500025EA0805DFF8B880404503D14FF00008BD
:1018600017E044E0DFF8AC80404502D14FF00108BA
:101870000FE0DFF8A480404502D14FF0020808E0F5
:10188000DFF89880404502D14FF0030801E04FF0A7
:10189000040808FA06F848EA0508CCF808804D68FC
:1018A000D9F80060ED024D4601D5164300E096439D
:1018B0002E604D68DAF80060AD02554601D516433A
:1018C00000E096432E604D68DBF80060AD035D4696
:1018D00001D5164300E096432E604D68DEF80060A7
:1018E000ED03754601D5164300E096432E60641C57
:1018F0000D682A46E5407FF431AFBDE8F88F00005F
:1019000008040140000011100010024000000140D6
:1019100000080140000C014000100140001401408B
:10192000C26821EA02030A4043EA024101617047AA
:101930000AB1016170470904FBE7000001488068B3
:10194000704700001400002070B5040025D094F802
:101950003D00002520B984F83C50204600F076FA7E
:10196000242084F83D002068016821F00101016015
:101970002068016841F4004101602068016821F499
:101980000041016000F0D8FC4D4A6168914201D8E5
:101990004C4900E04C49884201D2012070BD4B49BE
:1019A0002368B0FBF1F15E6826F03F060E435E60EF
:1019B0006368934206D94FF4967359434FF47A7390
:1019C000B1FBF3F12368491C1E6A26F03F06314340
:1019D00019626168914210D84900401EB0FBF1F2D3
:1019E000521CC2F30B02042A01D2042022E0B0FBF5
:1019F000F1F0401CC0F30B001CE0A268F2B301EB55
:101A0000C10303EB0116431EB3FBF6F35B1C43F467
:101A100080431B0549D092B301EBC10202EB0111D7
:101A2000401EB0FBF1F0401CC0F30B0040F48040BE
:101A300040F400402168CA694CF6FF739A43104392
:101A4000C861D4E9071001432068026822F0C0028F
:101A500011430160D4E9030101432068826848F220
:101A6000FF339A4311438160D4E90501084321689B
:101A7000CA6822F0FF021043C86001E00EE016E0E1
:101A80002068016841F0010101602564202084F88C
:101A90003D00256384F83E50002070BD01EB4106F7
:101AA000431EB3FBF6F35B1CB3E70120C2E701EB77
:101AB0004101401EB0FBF1F0401CC0F30B00B7E742
:101AC000A086010080841E0000093D0040420F00F6
:101AD0002DE9F84F0025DDF82890984617468A46EC
:101AE00004460095FFF72AFF064694F83D0020289B
:101AF0007AD11923012286492046009601F02EFD55
:101B00000028F5D194F83C0001286DD0012084F81C
:101B10003C0020680168C90703D1016841F0010158
:101B200001602068016821F400610160222084F8CE
:101B30003D00102084F83E0025646762A4F82A80E6
:101B4000608D20857348E06233464A465146204600
:101B500001F014FC00287CD1208DDFF8BC81202707
:101B600068B1012814D00228206801681ED041F411
:101B7000806101602068416980690090BBE0206855
:101B8000416981690091016841F400710160B2E02E
:101B90002068016821F48061016072B620684169A3
:101BA00081690091016841F400710AE041F400612B
:101BB000016072B62068416981690091016821F471
:101BC0008061016062B696E0032865D801280CD0D8
:101BD00002284B464FF000024146204600960BD0AB
:101BE00001F0BCFCA8BB0CE090E032464946204620
:101BF00001F05AFD68BB71E001F0B0FC48BB72B661
:101C000033E02068016821F48061016072B62068C9
:101C10000069616A0870606A401C6062208D401E25
:101C20002085608D401E60853C4846F2A811006802
:101C3000B0FBF1F0C0EBC00000EB80000090401E54
:101C4000009007D020684069C04340070DD5009838
:101C5000F5E727E044F8305F6773A573206940F02B
:101C60002000206162B625731CE02068016841F401
:101C70000071016020680069616A0870606A401C38
:101C80006062218D491E2185618D491E618562B684
:101C900021680969017025E032464946204601F075
:101CA00003FD10B10120BDE8F88F20680069616A6A
:101CB0000870606A401C6062208D401E81B22185E0
:101CC000608D401E608520684269D243520712D45D
:101CD000032903D1016821F4806101602068006953
:101CE000616A0870606A401C6062208D401E208519
:101CF000608D401E6085208D00287FF465AF84F8DC
:101D00003D7084F83E5084F83C50CCE70220CAE78E
:101D1000020010000000FFFF04000100200000206E
:101D20002DE9F84F1F4690468A460446DDF8289074
:101D3000FFF704FE054694F83D0020287FD11923C3
:101D4000012240492046009501F008FC002876D188
:101D500094F83C00012872D0012084F83C002068EF
:101D60000168C90703D1016841F0010101602068E1
:101D7000016821F400610160212084F83D001020F9
:101D800084F83E0000262664C4F824806785608DB0
:101D900020852D48E0622B464A465146204601F0F8
:101DA00063FB90B9206841698069009036E02A465B
:101DB0004946204601F0B0FC50B1206C042804D103
:101DC0002068016841F4007101600120BDE8F88FCE
:101DD000606A216800780861606A401C6062618DF9
:101DE000491E6185218D491E89B22185226853696A
:101DF000DB435B070BD451B100781061606A401C73
:101E00006062608D401E6085208D401E20852A46C0
:101E10004946204601F076FB0028CED1208D0028CF
:101E2000C5D154F83D0B016841F4007101602020D8
:101E300004F81E09E67766770020C7E7FFE702206F
:101E4000C4E70000020010000000FFFF10B586B0DC
:101E50000021009101910291039100680F4988428D
:101E60001AD10F4CA06940F00800A061A069694632
:101E700000F008000490C020009012200190032080
:101E800003900848FFF75CFCE06940F40010E06153
:101E9000E06900F40010049006B010BD005400404A
:101EA00000100240000C0140024881680278114491
:101EB0008160704714000020074810B5016841F0A8
:101EC00010010160032000F0A7F80F2000F006F8D1
:101ED00000F050F8002010BD0020024030B505464B
:101EE0001F4887B0C16941F00401C161C06906A9FA
:101EF00000F00400009001A800F0FEF90498B0B1D1
:101F000000F01AFA40001749174AB0FBF1F11748E0
:101F1000491E0260416040F2E7320021C0E903211E
:101F20008160816100F014FC040003D015E000F032
:101F300003FAE8E70D4800F04DFC04000DD11E2027
:101F400000F03CF8102D07D2002229461E2000F098
:101F500043F80748056000E0012407B0204630BD83
:101F60000010024040420F0000080040C004002062
:101F7000180000200F4808B5816941F00101816116
:101F8000816901F001010091C16941F08051C16195
:101F9000C069002200F0805000900F21901E00F0D8
:101FA0001BF80548416821F0E06141F00071416093
:101FB00008BD00000010024000000140002809DBBD
:101FC00000F01F02012191404009800000F1E02053
:101FD000C0F8001170470000F0B40E4B1B680C46AF
:101FE000C3F30223C3F10705042D00D90425191DED
:101FF000072901D2002300E0DB1E012606FA05F1C5
:10200000491E214099409E40761E16403143F0BC47
:1020100002F025BB0CED00E0064900F0070208685D
:102020004FF6FF03184040EA0220034A10430860BD
:10203000704700000CED00E00000FA0510B5014605
:102040000020234C012922D0022939D010291DD18A
:1020500061682268D20119D51E48C1F38342C903C1
:10206000805C0AD561681B4AC1F34041921E515CF5
:10207000194AB2FBF1F1484301E01849484361684D
:10208000490203D440000321B0FBF1F010BD226AE5
:10209000C2F30121012903D1920701D5C80310BD64
:1020A000022905D1626A920702D549F6404010BD67
:1020B0000329FCD121688903F9D54FF2244010BDD2
:1020C00000F04AF96168C1F38131491C4900DBE73E
:1020D000001002400091000800127A0000093D0043
:1020E0002DE9F84305460078354CC00754D0E06927
:1020F0000026C00008D4E06940F08050E061E0694B
:10210000012600F0805000902E480168C90512D4C5
:102110000168804641F480710160FFF70FFC0746BB
:1021200005E000BFFFF70AFCC01B642823D8D8F8DD
:102130000000C005F6D5206A10F4407021D0A988AF
:1021400001F4407181421CD0206A1F49012220F411
:1021500040700A6000220A602062C00711D0FFF7B9
:10216000EDFB074641F2883808E000BFFFF7E6FBC9
:10217000C11B414502D90320BDE8F883206A8007CE
:10218000F4D5206A696820F44070084320621EB1CB
:10219000E06920F08050E0612878800705D560680C
:1021A000A96820F44040084360602878C00605D53F
:1021B0006068E96820F48000084360600020DBE785
:1021C0000010024000700040400442422DE9F047F8
:1021D0000F46050061D0434E306800F00700B8425A
:1021E00009D2306820F0070038433060306800F0D2
:1021F0000700B84251D128683B4C810712D54007EF
:1022000003D5606840F4E06060602878000703D57B
:10221000606840F4605060606068A96820F0F00079
:10222000084360602878C00728D06868012810D06B
:102230002168022810D0890700292EDA616821F070
:10224000030101436160FFF779FB804641F2883961
:102250000DE021688903EFE78901EDE7FFF76EFBE9
:10226000A0EB0801494502D90320BDE8F08760686A
:10227000696800F00C00B0EB810FEFD1306800F01E
:102280000700B8420BD9306820F0070038433060AF
:10229000306800F00700B84201D00120E5E7287857
:1022A000400705D56068E96820F4E0600843606095
:1022B0002878000706D56068296920F4605040EA54
:1022C000C100606000F058F86168084AC1F303116A
:1022D000515CC8400649086006480068FFF7FEFDEB
:1022E0000020C2E7002002400010024010910008C8
:1022F00020000020180000200F2202600C4A5368C2
:1023000003F003034360536803F0F00383605368F2
:1023100003F4E063C36052684FF4E06303EAD2025F
:1023200002610448006800F0070008607047000080
:102330000010024000200240044805490068496836
:10234000044AC1F30221515CC840704720000020BC
:1023500000100240209100080448054900684968BF
:10236000044AC1F3C221515CC840704720000020DC
:1023700000100240209100080E4A51680E4801F0FA
:102380000C03042B11D0082B0FD10C48C1F383434D
:10239000C903C05C0AD55168084AC1F34041921E86
:1023A000515C054A5043B0FBF1F070470449484383
:1023B000704700000010024000127A00EE90000802
:1023C00000093D002DE9F84F040070D02078C04D81
:1023D000C00749D06868C0F38100012807D0686849
:1023E000C0F38100022809D16868C00306D52868B7
:1023F000800339D560680028E7D035E06068B0F523
:10240000803F0BD010B1B0F5A02F11D0286820F478
:1024100080302860286820F4802002E0286840F49A
:1024200080302860606890B1FFF788FA06460AE0BD
:10243000286840F480202860F0E700BFFFF77EFAAC
:10244000801B642873D828688003F7D50CE0FFF759
:1024500075FA064605E000BFFFF770FA801B642896
:10246000F0D828688003F7D420789A4E80074FF080
:1024700001094FF0000839D5686810F00C0F07D03B
:102480006868C0F38100022809D16868C00306D4D7
:102490002868800714D52069012808D110E0206938
:1024A000B0B1C6F80090FFF749FA074605E00AE127
:1024B000FFF744FAC01B0228C4D828688007F7D564
:1024C0002868616920F0F80040EAC10028600DE04A
:1024D000C6F80080FFF732FA074604E0FFF72EFA4D
:1024E000C01B022823D828688007F7D4207800076B
:1024F0002CD57948A169D9B1C0F80090FFF71EFA30
:10250000074604E0FFF71AFAC01B02280FD8686AD2
:102510008007F7D571484FF4FA510068B0FBF1F02D
:10252000009000BF0098411E0091FAD20EE080E0BA
:10253000C0F80080FFF702FA074604E0FFF7FEF953
:10254000C01B022875D8686A8007F7D42078400736
:1025500060D5E8690027C00008D4E86940F08050E1
:10256000E861E869012700F0805000905C4801684C
:10257000C90513D40168834641F480710160FFF7F7
:10258000DDF9824606E000BFFFF7D8F9A0EB0A00AC
:1025900064284ED8DBF80000C005F5D5E0680128B6
:1025A0000AD008B1052813D0286A20F0010028625B
:1025B000286A20F0040002E0286A40F00100286246
:1025C000E06841F2883B98B1FFF7B8F982460BE02A
:1025D000286A40F004002862EEE700BFFFF7AEF97A
:1025E000A0EB0A0159455AD8286A8007F6D50CE0B5
:1025F000FFF7A4F9824605E0FFF7A0F9A0EB0A0176
:1026000059454CD8286A8007F6D41FB1E86920F0F4
:102610008050E861E06988B36968C1F381010229EB
:1026200044D00228C6F8608004D0FFF787F904463A
:1026300038E034E0FFF782F9074604E0FFF77EF95F
:10264000C01B02282BD828688001F7D4206AB0F577
:10265000803F05D16868A16820F4003008436860B5
:10266000D4E908010843696821F4741108436860DB
:10267000C6F86090FFF762F9044606E025E000BF67
:10268000FFF75CF9001B022809D828688001F7D5FC
:102690001BE000BFFFF752F9001B022802D90320FC
:1026A000BDE8F88F28688001F4D40EE00128F7D047
:1026B0006868226A00F48031914204D1616A00F4B2
:1026C0007010884201D00120EAE70020E8E700000E
:1026D00000100240000042428004424220000020DC
:1026E000007000407047704770B590F83C20012A98
:1026F00026D0012480F83C40022280F83D20036867
:102700005A689D6822F070060A6832435A600D4B81
:1027100002689A4208D0B2F1804F05D00A4B9A4223
:1027200002D00A4B9A4204D1496825F0800319432C
:10273000916080F83D40002180F83C10084670BD53
:10274000022070BD002C0140000400400008004041
:1027500010B5040003D094F83D0010B107E001204B
:1027600010BD002084F83C00204600F01FF8022035
:1027700084F83D00211D206801F0BAFC012084F896
:10278000460084F83E0084F83F0084F8400084F856
:10279000410084F8420084F8430084F8440084F83F
:1027A000450084F83D00002010BD000008B5006819
:1027B0000649884208D10648C16941F00201C16159
:1027C000C06900F00200009008BD00000004004055
:1027D0000010024090F83D10012901D001207047FF
:1027E000022180F83D100168CA6842F00102CA6007
:1027F00000680B49884208D0B0F1804F05D00949E4
:10280000884202D00849884204D1816801F007015A
:10281000062903D0016841F00101016000207047E2
:10282000002C0140000400400008004070B5044640
:1028300090F83C000025012817D0012684F83C6060
:10284000022084F83D002068826822F0770222F49A
:102850007F4282600868502838D00DDC20284FD095
:1028600005DC90B3102811D14AE0022070BD302859
:1028700046D040280AD13BE060282FD070280DD0E8
:10288000B0F5805F03D0B0F5005F12D0012584F869
:102890003D60002084F83C00284670BDCB68D1E93B
:1028A0000121206801F06DFC2068816841F077010A
:1028B00009E0CB68D1E90121206801F062FC2068C1
:1028C000816841F480418160E1E719E0CA684968A4
:1028D000206801F00BFD5021206806E0CA684968B5
:1028E000206801F014FD6021206801F054FCCEE75F
:1028F000CA684968206801F0F9FC40212068F4E7C3
:10290000226801461046F0E72DE9F0410D4604002B
:1029100003D094F83D0018B108E00120BDE8F08133
:10292000002084F83C00204600F040F8022084F8A3
:102930003D002068816844F2070291438160211DB7
:10294000206801F0D5FB226890689169166A2B68AF
:10295000AF69034340F20330814341EA0721A8688D
:10296000EF6908434FF6FC418843E96840EA0720D5
:10297000014328692F6A000140EA0730084369686B
:102980006D6926F0220646EA051529439360226800
:10299000906154F8460B0162012004F81F09E075AC
:1029A0002076E0762077A0750020B7E700B585B0E7
:1029B00000210091019102910391194B026819497C
:1029C00019489A4212D18A6942F400628A618A697E
:1029D00002F4006204928A6942F004028A61896901
:1029E00001F0040104914FF4407113E0B2F1804F03
:1029F00014D1CA6942F00102CA61CA6902F0010237
:102A000004928A6942F004028A61896901F0040132
:102A10000491032100916946FEF792FE05B000BDC6
:102A2000002C0140001002400008014070B590F8F1
:102A30003E60044690F83F5090F8423090F84320B2
:102A4000022021B104290ED0012E1BD114E0012E49
:102A500018D1012B16D184F83E0084F842000122DF
:102A60000021206820E0012D0CD1012A0AD184F830
:102A70003F0084F8430014E0012D03D1012B01D164
:102A8000012A01D0012070BD84F83E0084F83F0087
:102A900084F8420084F8430001220021206801F0FC
:102AA00063FB01220421206801F05EFB20680168BD
:102AB00041F001010160002070BD70472DE9F04137
:102AC00004460068C66805694FF00007A90713D5DA
:102AD000B10711D5F91E01610120207720688069B6
:102AE0008007204602D0FFF7E8FF04E000F0AEF8D0
:102AF000204600F040F92777680716D5700714D5EF
:102B000021686FF004000861022020772068806946
:102B100010F4407F204602D0FFF7CFFF04E000F022
:102B200095F8204600F027F92777280715D53007B4
:102B300013D521686FF00800086104202077206811
:102B4000C0698007204602D0FFF7B7FF04E000F01D
:102B50007DF8204600F00FF92777E80616D5F00635
:102B600014D521686FF010000861082020772068D4
:102B7000C06910F4407F204602D0FFF79EFF04E0BA
:102B800000F064F8204600F0F6F82777E80708D050
:102B9000F00706D021686FF001000861204600F0C0
:102BA00039F9280608D5300606D521686FF080006F
:102BB00008612046FFF796FD680608D5700606D521
:102BC00021686FF040000861204600F02DF9A8064A
:102BD0000AD5B00608D521686FF0200008612046AC
:102BE000BDE8F041FFF77FBDBDE8F08100B585B0DD
:102BF0000021009101910291039100680F498842E0
:102C000019D10F48816941F00801816180696946E5
:102C100000F008000490032000900220019003902F
:102C20000848FEF78DFD0821074800F0A5F80C21A3
:102C3000054800F0A1F805B000BD00000004004008
:102C400000100240000C0140A4020020704770B543
:102C5000044690F83C0000260D4601280FD00120C4
:102C600084F83C006AB1042A1DD0082A2FD00C2A0F
:102C70003FD00126002084F83C00304670BD022081
:102C800070BD206801F090FA2068816941F0080168
:102C900081612068816921F0040181612068816976
:102CA0002A69114311E0206801F0A6FA20688169C1
:102CB00041F4006181612068816921F48061816152
:102CC000206881692A6941EA02218161D2E720688E
:102CD00001F0BEFA2068C16941F00801C1612068B5
:102CE000C16921F00401C1612068C1692A691143E9
:102CF00011E0206801F0D8FA2068C16941F4006150
:102D0000C1612068C16921F48061C1612068C16925
:102D10002A6941EA0221C161ACE710B5040003D081
:102D200094F83D0010B107E0012010BD002084F8A8
:102D30003C00204600F01EF8022084F83D00211DD2
:102D4000206801F0D5F9012084F8460084F83E009F
:102D500084F83F0084F8400084F8410084F8420081
:102D600084F8430084F8440084F8450084F83D006A
:102D7000002010BD7047704710B50446022249B1CB
:102D800004290ED0082913D094F84100012816D048
:102D9000012010BD94F83E000128F9D184F83E20AE
:102DA0000FE094F83F000128F2D184F83F2008E0BA
:102DB00094F840000128EBD184F8402001E084F829
:102DC00041200122206801F0CFF90F492068884294
:102DD00003D1426C42F4004242642068884208D029
:102DE000B0F1804F05D00949884202D00849884295
:102DF00004D1816801F00701062903D0016841F080
:102E000001010160002010BD002C014000040040C1
:102E10000008004000680349884201D1FFF744B828
:102E20007047000000080040704718B5034690F84E
:102E30004200202801D0022018BD61B15AB1012002
:102E4000186300205863184601F0B8FB0028F3D13E
:102E5000196B012901D0012018BD19680A68496859
:102E6000009119680C3151E8002F42F0100241E83E
:102E70000024002CF5D118BD3EB5174A904229D147
:102E8000164CA2F5A47502AA2078ADF8041005EB43
:102E9000C010009000200346029011486946006867
:102EA00005F00CFC012803D12078C0F1010020704E
:102EB0002078802205EBC0110748FFF7B6FF029883
:102EC000002807D007494FF080500860BFF34F8FAC
:102ED000BFF36F8F3EBD00003404002010000020BF
:102EE000FC00002004ED00E070470000F8B5016828
:102EF00004460868CA684B6910F00F0F4FF00005D0
:102F000059D003F0010602F49077374365D0C1072A
:102F100005D0D10503D5616C41F001016164410721
:102F200005D5D90703D0616C41F0020161648107C6
:102F300005D5D90703D0616C41F004016164010734
:102F400007D502F02001314303D0616C41F0080144
:102F50006164616C00293AD0800604D5900602D5E0
:102F6000204601F06EFA20684069616CC0F3801061
:102F7000090700D460B3204601F02EFA20684069AA
:102F8000400621D52068143050E8001F21F0400190
:102F900040E80012002AF5D1E06BA8B16D49416309
:102FA000E06BFEF743FA002811D0E06B416B01B0F3
:102FB000BDE8F040084783060FD593060DD520469F
:102FC000BDE8F84001F03DBA2046FFF78DFFF8BD9F
:102FD0002046FFF789FF6564F8BD266B2023012E8C
:102FE0007CD1C6067AD5D60678D5086848680090A0
:102FF00048694FF00206400640D5E16B086840681A
:103000000004000CE8D0A28D8242E5D9E0858869F1
:1030100020282DD020680C3050E8001F21F480714A
:1030200040E80012002AF5D12068143050E8001F53
:1030300021F0010140E80012002AF5D12068143087
:1030400050E8001F21F0400140E80012002AF5D1AD
:1030500084F84230256320680C3050E8001F21F0CE
:10306000100140E80012002AF5D1E06BFEF7BAF932
:103070006663A08DE18D401A81B22AE0A08DE18DBA
:10308000401A81B2E08D0028A6D00029A4D0226881
:103090000C3252E8000F20F4907042E80007002F35
:1030A000F5D12068143050E8002F22F0010240E8EA
:1030B0000027002FF5D184F84230256320680C30BA
:1030C00050E8002F22F0100240E80023002BF5D139
:1030D00066632046FFF7D0FEF8BDFFE705062BD557
:1030E000150629D594F841002128F5D1A068B0F53E
:1030F000805F01D12069B0B1206A411C2162216842
:1031000000784860E08C401E0004000CE084E3D1AD
:103110002068C16821F08001C1602068C16841F069
:103120004001C160D8E7206A0088C0F30800486009
:10313000206A801C2062E5E74006CDD55006CBD53D
:10314000CA68204622F04002CA6084F8413000F08C
:10315000FBF8C1E73343000870B5040004D094F8CD
:103160004100002510B106E0012070BD84F84050F8
:10317000204600F023F8242084F841002068C1682C
:1031800021F40051C160204601F0BCF920680169BA
:1031900021F4904101612068416921F02A014161D7
:1031A0002068C16841F40051C1606564202084F842
:1031B000410084F842006563002070BD70B586B0A0
:1031C000002400940194029403940646384D036849
:1031D000384902200322AB4227D1CB6943F40033A4
:1031E000CB61CB6903F4003304938B6943F0040390
:1031F0008B618969304D01F0040104910421CDE90E
:103200000010039269462846FEF79AFA0820CDE995
:103210000004694628460294FEF792FA002205212E
:103220002620FEF7D9FE26203DE0244DAB423CD1BE
:10323000CB6943F48023CB61CB6903F480230493EF
:103240008B6943F008038B618969039201F00801DF
:1032500004912915CDE90010194D69462846FEF75D
:103260006FFAE814CDE90004694628460294FEF797
:1032700067FA154D134828601020C5E90104802025
:10328000C5E903046C61AC612846EC61FEF7C4F942
:1032900008B1FDF7FEFDB5630022052127206E620F
:1032A000FEF79AFE2720FEF789FE06B070BD0000EB
:1032B0000044004000100240000801400048004067
:1032C000000C01401C0002407C04002070470000FC
:1032D00070B5044690F84100202801D0022070BD4E
:1032E00049B342B32162A284E284002060642123B6
:1032F00084F84130A56B114BAB62A56B104BEB62B0
:10330000A56B104B2B63A36B5863256813462A1DCE
:10331000A06BFEF7AFF921686FF0400008602068ED
:10332000143050E8001F41F0800140E80012002AEC
:10333000F5D1002070BD012070BD00008D43000854
:10334000CF4300084343000870477047FEE7016819
:103350004A69D24352050FD46FF480624A6100215A
:1033600040F8301F202242738173026942F0040248
:103370000261017301207047002070472DE9F84F6A
:103380000446C06A1E4693460D4621680A6842F408
:1033900080620A60082807D0012805D010F5803F18
:1033A00002D0206B112804D12068016841F480719B
:1033B00001604FF001195B46002249462046009605
:1033C00000F0CCF84FF4007840B120680068C005E8
:1033D00001D5C4F840800320BDE8F88F2069DFF8EC
:1033E00084A0B0F5804F0FD00620216800EAD517E1
:1033F00047F0F000086133465A460AF106012046BC
:1034000000F0F4F858BB03E0E8B240F001001CE023
:103410002168E8B2086133465A465146204600F01A
:10342000E5F8E0B92068416981690091016841F4DB
:10343000807101605B46002249462046009600F0FC
:103440008DF80028C1D147F0F100216808613346AA
:103450005A465146204600F0C9F80028BCD0012049
:10346000BAE7000002000100F8B50446C06A1E4633
:103470000D461746082807D0012805D010F5803FD3
:1034800002D0206B122804D12068016841F48071B9
:103490000160134600224FF001112046009600F013
:1034A0005DF840B120680068C00502D54FF4007097
:1034B00020640320F8BD2069B0F5804F0ED00620AF
:1034C000216800EAD51040F0F000086133463A4622
:1034D0000B49204600F08AF878B902E005F0FE00BA
:1034E00000E0E8B221680861054933463A46891F81
:1034F000204600F07BF80028DCD00120F8BD000059
:103500000800010070B516460D4604461EE0204630
:10351000FFF71DFF08B1012070BD681C16D0FEF733
:103520000DFA801BA84200D885B920684069C043C5
:1035300040070BD5002044F8300F20216173A073A1
:10354000216941F0200121612073E4E7206840698E
:10355000C0434007DBD4002070BD00002DE9F047D8
:10356000984617460D460446C1F30746DDF82090FD
:103570002AE000BFB8F1FF3F26D0FEF7DFF9A0EB4D
:103580000901414502D8B8F1000F1DD12068012E74
:1035900016D0806925EA00000004000C12D000203B
:1035A000B84211D1002044F8300F20216173A0737C
:1035B000216941F02001216120730120BDE8F087DD
:1035C0004069E7E70120EBE72068012E0AD0806917
:1035D00025EA00000004000C06D00020B842C9D043
:1035E0000020EBE74069F3E70120F7E72DE9F0471A
:1035F000984616460D4604464FF000094FF0200A43
:10360000C1F3074723E020684069C043400515D453
:103610002068016841F40071016021686FF48060E6
:103620004861C4F8309084F83DA084F83E90216C45
:1036300041F00401216484F83C9021E0701C06D024
:10364000FEF77CF9A0EB0800B04203D816B1012FB9
:103650001FD021E02068012F15D0806925EA0000E5
:103660000004000C18D000BF44F8309F84F80DA06F
:1036700084F80E90216941F02001216184F80C90BA
:103680000120BDE8F087406925EA00000004000C35
:10369000EAD12068406901E02068806925EA0000DD
:1036A0000004000CAFD1ECE72DE9F0410025904675
:1036B0000E460446202728E04069C043C0060CD4CB
:1036C00054F8301B6FF01000486144F810596777C8
:1036D000A577206A2062257714E0FEF72FF9A0EB8A
:1036E0000800B04200D886B920684069C04340064F
:1036F0000BD544F8305F6773A573206940F0200054
:10370000206125730120BDE8F08120684169C9432B
:103710004906D1D40020F6E770B516460D4604469A
:103720001EE02046FFF713FE08B1012070BD681CA3
:1037300016D0FEF703F9801BA84200D885B920688F
:103740004069C04300060BD5002044F8300F20210B
:103750006173A073216941F0200121612073E4E7C6
:1037600020684069C0430006DBD4002070BD000023
:103770002DE9F74F474F84B008467968444D0291D0
:10378000FCF7A8FD0699FCF7ABFD3968FCF750FD86
:1037900007F158048246D4F8048028464146FCF7D5
:1037A00099FDD4F808904946FCF794FD3A49086021
:1037B000E268934682F00045384A4D60C1E9025202
:1037C0000699FCF78DFD2168FCF732FD0646284678
:1037D0000699FCF785FD41460090FCF729FD05465A
:1037E00049460098FCF724FD81462C480699FCF7D1
:1037F00077FD5946FCF71CFD804651460498FCF7BE
:1038000069FD01904FF07C513046FCF711FD834675
:1038100001463046FCF796FD009059464846FCF7B5
:1038200091FD834631460098FCF75AFD3146FCF77E
:1038300054FD206029460098FCF752FD2946FCF70C
:103840004CFD606031465846FCF74AFD4946FCF79E
:1038500044FDA06029465846FCF742FD4146FCF76E
:103860003CFDE060DDE90001FCF73AFD5146FCF764
:10387000DFFC3860044658460199FCF731FD029997
:10388000FCF7D6FC786007B02046BDE8F08F00005A
:103890006F12833A1401002058340020A69B443B49
:1038A0003EB500211148009101910F4A029102603A
:1038B00081600173017501244FF460220461C261CB
:1038C0004160FDF7D7FB08B1FDF7E3FA0620CDE92B
:1038D00000040220029069460448FDF749FB0028D5
:1038E00001D0FDF7D6FA3EBD002401409001002032
:1038F000094808B5416941F0010141614069002270
:1039000000F00100009004210C20FEF765FBBDE8EB
:1039100008400C20FEF752BB001002401CB5FDF71A
:10392000A1FA012004F076FD19490022086008215F
:10393000022004F07AFD1749174A08600021174851
:1039400002F0B0FD164900238022C8601820CDE99E
:10395000000114A1164805F0A3F811493020091DF3
:10396000CDE900010023802212A1154805F098F846
:103970000B4910200831CDE900014201002311A1BB
:10398000134805F08DF804F0FBFB124908601CBDDC
:10399000F4000020FC000020C8900008B13F00089F
:1039A00000000020494D55205461736B0000000059
:1039B0002D620008504944205461736B00000000E0
:1039C000316500085368656C6C205461736B0000AE
:1039D00065780008F80000202DE9F04186B0002449
:1039E0002D480094019402940394816941F01001E0
:1039F0008161816901F010010491816941F0200128
:103A00008161816901F020010491816941F0040123
:103A10008161816901F004010491816941F008012B
:103A2000816180691D4F00F008004FF4204504902B
:103A3000002229463846FDF77BFFDFF864804FF40B
:103A40007046002231464046FDF772FF0220CDE964
:103A5000024000950125694601953846FDF770FE44
:103A6000A80300900F48CDE9010469463846FDF7E8
:103A700067FE0096CDE90154694640460395FDF77F
:103A80005FFE002205212820FEF7A6FA2820FEF777
:103A900095FA06B0BDE8F081001002400010014028
:103AA000000C0140000021100D4810B50B490160C9
:103AB0000C49416000214FF480428160C0E903124B
:103AC00041618161C1610162FDF73EFF002803D0C1
:103AD000BDE81040FDF7DDB910BD00000054004006
:103AE000C0010020A086010010B58CB024216846DA
:103AF000FCF793FB00241A48099418490A94C0E97A
:103B000000144FF6FF71C0E9024104614461846111
:103B10000320CDE900040120CDE902040A2104912B
:103B2000CDE90540CDE9074169460D48FEF7ECFEB9
:103B300008B1FDF7AEF9099409A909480A94FEF7FE
:103B4000D3FD08B1FDF7A5F900210548FEF76EFF8A
:103B500004210348FEF76AFF0CB010BD002C0140A1
:103B60001402002010B58CB024216846FCF755FBE8
:103B70000024194809944FF080410A94C0E90014C8
:103B80004FF6FF71C0E90241046184610320CDE971
:103B900000040120CDE902040A210491CDE9054089
:103BA000CDE9074169460C48FEF7AEFE08B1FDF7C6
:103BB00070F9099409A908480A94FEF795FD08B11F
:103BC000FDF767F900210448FEF730FF04210248A1
:103BD000FEF72CFF0CB010BD5C02002010B58EB0BB
:103BE00000240794089409940A940B941C216846B5
:103BF0000C94FCF712FB22482049C0E9001441F65E
:103C00001F41C0E90241802104618161FEF7A0FDEE
:103C100008B1FDF73EF94FF48050079007A9184806
:103C2000FEF704FE08B1FDF734F91548FFF775F803
:103C300008B1FDF72EF90B940BA911480C94FEF76F
:103C400053FD08B1FDF725F96020CDE90004029489
:103C5000082269460A480494FEF7F9FF08B1FDF707
:103C600018F90C2269460648FEF7F1FF08B1FDF786
:103C700010F90348FEF7BAFF0EB010BD0004004073
:103C8000A40200200C4810B50A4901604FF4E1314C
:103C90004160002181600C22C160C0E90412816191
:103CA000C161FFF759FA002803D0BDE81040FDF7C5
:103CB000F0B810BD00440040EC030020104810B5DF
:103CC0000E4901604FF416514160002181600C22C1
:103CD000C160C0E904128161C161FFF73DFA08B11A
:103CE000FDF7D7F80849074880220978BDE8104059
:103CF00000EBC1110248FFF798B8000000480040EF
:103D000034040020EC02002010000020FEE7FEE753
:103D10002DE9F74F2E4C06464FF00009D4E9077005
:103D2000D4E909A8834632B184F800900020C4F891
:103D30003490BDE8FE8F606D254920F00040B0F161
:103D40007E5F0D781CDD0199606DFCF7C3FA0646B5
:103D500015B90120207066633046616BFCF7BAFA32
:103D6000014658466663FCF7BBFA044631463846BE
:103D7000FCF7B6FA03B02146BDE8F04FFCF758BA9D
:103D800075B184F800900026711EA06B04F092FDBE
:103D9000C4F8489000231A461946A06B04F0DEFBD5
:103DA0000C4886F00044844202DC0B48844200D96F
:103DB000044640460199FCF793FA054621465046D1
:103DC000FCF78EFA03B02946BDE8F04FFCF782BA43
:103DD000BC0000200000A0410000A0C12DE9F0417E
:103DE000194C0F46D4E90386FCF700FC216DFCF763
:103DF00071FA1649FCF774FA05461549E06AFCF7B2
:103E00006FFA2946FCF714FA0546E06217B1002064
:103E100020630BE02946206BFCF70AFA0D4920636A
:103E2000884202DC0C49884200D921633146206B6C
:103E3000FCF756FA044641462846FCF751FA21465B
:103E4000BDE8F041FCF7F4B9BC0000209A99993E16
:103E50003333333F00007A4400007AC4084910B578
:103E6000884202DD41F6583010BD0649884201D92A
:103E7000054810BD03F0AEF9BDE81040FCF7D5BB16
:103E800000C0DA4500C0DAC5A8E4FFFF0021012820
:103E900009D0022801D0002070474FF08042506ABC
:103EA000516200B27047024A1068116000B2704758
:103EB000242C01407FB582B01D46164664240123A0
:103EC00003AAD22106480094FDF72AFF2B4632466A
:103ED000D22103480094FDF7FBFD06B0002070BD21
:103EE000C0010020F8B51D4617460E46581C03F0C9
:103EF000D5F8040013D026702A463946601CFCF71A
:103F000073F964206D1C0090ABB22246D2210548A3
:103F1000FDF706FF204603F093FE0020F8BD4FF0AA
:103F2000FF30F8BDC00100202DE9F0411E4E0C46C7
:103F3000051E4FF480474FF400484FF0010209DDA1
:103F400039463046FDF7F4FC002241463046FDF785
:103F5000EFFC09E041463046FDF7EAFC0022394615
:103F60003046FDF7E5FC6D424FF400514F10002C38
:103F700009DD01223046FDF7DBFC002239463046E0
:103F8000FDF7D6FC09E000223046FDF7D1FC012206
:103F900039463046FDF7CCFC644204480168CD63E5
:103FA00000680464BDE8F081000C0140A402002018
:103FB000FCF7FEFD204D80B9204801F019F9204C96
:103FC0000221206804F0EAF80122D1032846FDF717
:103FD000AFFC0421206804F0E1F84FF400563146AC
:103FE0002846FDF79DFC1748FDF79CF9052115486B
:103FF000FDF7FAF828B14FF47A7000BF03F0C4FE61
:10400000EDE71048FDF732F884B22046FCF7F7FAE6
:104010000D49FCF765F901460C480023032280682E
:1040200004F096FD40F2711044434FF4FA70B4FB73
:10403000F0F0401CE2E700000010014034340020A2
:10404000F800002090010020473C113C00000020B7
:1040500010B54FF0E020006904F0EAFD012803D01C
:10406000BDE8104004F0C0B910BD30B593B02821B0
:104070006846FCF7D2F814210AA8FCF7CEF8002510
:1040800001200F9510951195010412958DE82300DC
:1040900004904FF4E010CDE908100224079468461C
:1040A000FEF790F908B172B6FEE70AA90F2081E881
:1040B00031004FF48060CDE90D0502210AA8FEF71A
:1040C00085F808B172B6FEE74FF4004011900F94E6
:1040D0000FA8FEF705F8002801D072B6FEE713B06E
:1040E00030BD70470148FEF7E9BC0000C004002065
:1040F000F0B50268194B1A4C1A4D4FF080479842A0
:1041000005D0B84203D0A04201D0A84203D122F08A
:1041100070064A683243984205D0B84203D0A042A4
:1041200001D0A84203D122F44074CA6822434C69EA
:1041300022F08002224302608A68C2620A688262B8
:10414000984201D109690163012141610169C907EF
:1041500003D0016921F001010161F0BD002C014093
:10416000000400400008004010B501F01F030121C9
:10417000046A99408C430462016A9A4011430162C7
:1041800010BD10B5846842EA032224F47F440A4338
:104190002243826010BD826822F070020A4342F01E
:1041A000070181607047000030B5036A026A22F09F
:1041B000010202624268846924F073050C682C4392
:1041C00023F002058B682B430A4DA8420BD123F044
:1041D0000805CB6822F440722B434D6923F0040399
:1041E00015438A692A4342608461496841630362D6
:1041F00030BD0000002C014030B5026A036A23F094
:1042000010030362436884690D6824F4E64444EAB9
:1042100005248D6822F0200242EA05120B4DA842C7
:104220000ED1CD6822F0800242EA05124D6923F4D6
:10423000406343EA85038D6922F0400243EA850327
:104240004360846149688163026230BD002C014093
:1042500030B5036A026A22F4807202624268C4695D
:1042600023F4007324F073050C682C438D6843EA33
:1042700005230C4DA8420ED1CD6823F4006343EA18
:1042800005234D6922F4405242EA05128D6923F458
:10429000806342EA05124260C4614968C1630362F7
:1042A00030BD0000002C014030B5046A026A22F4DF
:1042B000805202624268C3690D6823F4E64343EA10
:1042C00005238D6824F4005444EA0534064DA842C1
:1042D00004D14D6922F4804242EA85124260C361F2
:1042E00049680164046230BD002C014010B5036AC6
:1042F000046A24F001040462846924F0F00444EAAE
:10430000021423F00A020A438461026210BD10B550
:10431000036A046A24F010040462846923F0A00391
:1043200024F4704444EA023243EA011182610162DA
:1043300010BD10B5406A0021C185C184FEF7D4FDCF
:1043400010BD70B5446A2068406994F84110C0F30C
:10435000C0100025212904D118B1E584204600F0C1
:1043600062F82068406994F84210C0F38010222956
:1043700004D118B1E585204600F02EF8606C40F0BD
:10438000100060642046FEF7AFFD70BD10B5014619
:10439000406A09680968890616D40021C184016849
:1043A000143151E8002F22F0800241E80023002B55
:1043B000F5D101680C3151E8002F42F0400241E88C
:1043C0000023002BF5D110BDFEF7BEFF10BD10B5C8
:1043D000406AFEF7BAFF10BD01680C3151E8002FAA
:1043E00022F4907241E80023002BF5D101681431CA
:1043F00051E8002F22F0010241E80023002BF5D103
:10440000016B012909D101680C3151E8002F22F01C
:10441000100241E80023002BF5D1202180F8421042
:1044200000210163704701680C3151E8002F22F030
:10443000C00241E80023002BF5D1202180F8411073
:10444000704708B590F84210222901D0022008BD1B
:1044500082684FF480539A4201D1016921B1816A87
:104460009A421BD04AB10AE00268816A5268C2F3DC
:1044700008020A80816A891C08E0026972B1026838
:10448000526802F07F020A70816A491C8162C18D04
:10449000491E0904090CC18503D01BE0026852685B
:1044A000F1E70168CA6822F02002CA600168CA68A0
:1044B00022F48072CA6001684A6922F001024A61EE
:1044C000202180F8421000214163026B012A03D0B1
:1044D000FEF7FCFE002008BD016301680C3151E8C5
:1044E000002F22F0100241E80023002BF5D10168D3
:1044F0000A68D20602D50A6849680091818DFEF7E4
:10450000BBFCE7E770B5044600680169E26821F486
:104510004051114301612169A06808436169084362
:104520002168CA6841F20C639A430243CA6020685A
:104530004169A26921F44071114341611E4920681B
:10454000884202D1FDF708FF01E0FDF7F5FE00EB20
:10455000C00101EB0012606864218000B2FBF0F33F
:10456000B3FBF1F36FF018067343B2FBF0F5B2FB47
:10457000F0F605EB8305322303EB0515B5FBF1F5EA
:10458000B6FBF1F605F0F00505EB0615B2FBF0F60B
:10459000B2FBF0F0B0FBF1F06FF01802504306EB05
:1045A000800003EB0010B0FBF1F0216800F00F0079
:1045B0002844886070BD0000003801408162828517
:1045C000C28500214164222180F84210016921B195
:1045D0000168CA6842F48072CA6001684A6942F0A0
:1045E00001024A610068C16841F02001C1600020F9
:1045F000704700000148FEF779BC0000EC03002082
:104600000148FEF773BC000034040020FEE7000000
:104610000FB4084B10B504A902AA039800F00EF9D4
:10462000044602A9002000F08CFC204610BC5DF876
:1046300014FB0000434F00084100080218BF04208B
:104640000A0E18BF40F001004FF07F4232EA01012C
:1046500008BF40F00200012808BF05207047090785
:10466000090E002804DB00F1E02080F800147047F8
:1046700000F00F0000F1E02080F8141D7047FBF7F8
:10468000D7BD6FF05E010807FCF7F0B902E008C87B
:10469000121F08C1002AFAD170477047002001E0BC
:1046A00001C1121F002AFBD17047000001490860B8
:1046B000704700008C0100202DE9FF5F82B00021CF
:1046C000DDE90430020DDDF840B0034318D044F6B4
:1046D0001050A2F2FF3242431514119801281FD046
:1046E000A5EB0B00401C5FEA000A4FF000064E4F9E
:1046F000DFF83891B046504615D5CAF1000413E0F2
:10470000119801244AA3012801D16FEA0B010298F4
:10471000119AC0E90031C0E9024206B0BDE8F09F3D
:10472000CBF10000DFE704460021404A491842EB84
:104730000450CDE9001012E0E00707D032463B46B6
:1047400040464946FCF7DEF88046894632463B46FD
:1047500010461946FCF7D6F806460F466410002CA2
:10476000EAD1DDE90401DDE90023BAF1000F06DA40
:10477000FCF7C8F842464B46FCF7C4F805E0FBF7E7
:10478000C6FE42464B46FBF7C2FE04460E460022DA
:10479000284BFCF741F903D84FF0FF30014607E002
:1047A0000022254B20463146FBF70AFEFCF71CF998
:1047B000102409E0002C0ADB0A220023FBF79EFFED
:1047C000039B30321A55641E50EA0102F2D1641C78
:1047D000039AC4F111031444119A012A03D001224F
:1047E00008430DD10AE0084304D000204FF0110B1C
:1047F000119072E7A3EB0B056D1E0DE05B4504DD28
:104800004FF0000205F1010504E003DA4FF0000269
:10481000A5F10105002AECD002981199C0E90231F6
:10482000C0E9004579E70000000014400000F03FB7
:10483000300000000000F0430000E03F2DE9FF4F92
:1048400095B09A46884606460025EEE1252877D1A0
:1048500000242746F94A0121039400E0044316F896
:10486000013F203B01FA03F01042F7D130782A28AB
:1048700011D06FF02F033078A0F13002092A16D83A
:10488000039A44F0020402EB820203EB420210445A
:10489000761C0390EFE758F8042B0392002A03DA02
:1048A000504244F40054039044F00204761C3078E3
:1048B0002E2816D116F8010F44F004042A280DD032
:1048C0006FF02F023078A0F13003092B09D807EBE5
:1048D000870302EB4303C718761CF3E758F8047B01
:1048E000761C30786C280FD006DC4C2817D068284E
:1048F0000DD06A2814D104E0742810D07A280FD182
:104900000DE044F400140AE044F4801401E044F49F
:1049100040147278824202D104F58014761C761C11
:10492000307866280BD013DC582877D009DC0028B3
:1049300075D04528F6D04628F4D047281AD193E1FF
:1049400018E0632835D0642879D0652812D18BE12E
:10495000702873D008DC6728F1D069286FD06E28E2
:104960000DD06F2806D1ACE073282CD0752874D0F8
:10497000782853D05246179990476D1C54E1C4F3E0
:104980000250022809D003280DD0D8F800100428BE
:104990000DD00D6008F1040846E1D8F80010EA17C0
:1049A000C1E90052F6E7D8F800100D80F2E70D706B
:1049B000F0E718F8041B8DF8001000208DF80100B6
:1049C000EB46012003E058F804BB4FF0FF306107CD
:1049D0004FF0000102D40DE009F101018946B9420E
:1049E0000FDA8145F8DB1BF809100029F4D108E043
:1049F00009F1010189468142FADB1BF809100029FF
:104A0000F6D103985346A0EB090721463846179A7A
:104A100000F080FA284400EB090507E044E008E1D3
:104A20000DE01BF8010B524617999047B9F10109A7
:104A3000F7D2534621463846179AF2E039E00A2168
:104A4000C4F302524FF0000B0091022A06D058F82E
:104A5000040BC117032A09D00AE023E008F107007C
:104A600020F00702F2E80201904605E000B2C1170B
:104A7000042A01D140B2C117002906DA0A460021F2
:104A8000404261EB02012D2202E0220504D52B22D7
:104A90008DF80420012203E0E20701D02022F7E78D
:104AA000914657E00A2100E010214FF0000B0091E1
:104AB0000BE010214FF0000B44F004040827009194
:104AC00003E008204FF0000B0090C4F30252022ACA
:104AD00005D058F8040B0021032A08D008E008F19B
:104AE000070020F00702F2E80201904603E080B2DE
:104AF000042A00D1C0B24FF0000922072AD532782B
:104B0000702A07D0DDF800C08CF0100C5CEA0B0CAA
:104B100005D00EE040228DF80420012208E050EA82
:104B2000010306D030238DF804308DF805200222D1
:104B30009146009B83F0080353EA0B030AD150EA25
:104B4000010201D1620705D530228DF804204FF013
:104B500001097F1E3278582A04D039A20C920CAA7F
:104B600002920BE03BA2F9E75B46009AFBF7C6FD19
:104B70000C9B9B5C029A521E0292137050EA010237
:104B8000F2D1029804A9081A00F1200B600702D59F
:104B900024F4803400E001275F4502DDA7EB0B0021
:104BA00000E0002000EB0B01009003984944401AFC
:104BB0000390E00306D453462146179A039800F069
:104BC000A9F90544002706E001A85246C05D1799DF
:104BD00090476D1C7F1C4F45F6DBE0030CD5534618
:104BE0002146179A039800F095F9054404E0302017
:104BF0005246179990476D1C0099481E0090002955
:104C0000F5DC08E00298029952460078491C0291AE
:104C1000179990476D1CBBF10001ABF1010BF1DC62
:104C20005BE100F065F90544761C307800287FF4DC
:104C30000DAE19B02846BDE8F08F0000092801002C
:104C40003031323334353637383961626364656602
:104C500000000000303132333435363738394142C4
:104C60004344454600000000600700D4062708F1D1
:104C7000070020F00700F0E80223804603F0004C14
:104C80005FEA0C0001D097A009E0200501D596A0AD
:104C900005E0E00701D095A001E0AFF24C001390D1
:104CA000307823F0004365280CD006DC452809D075
:104CB00046281DD047287FD13BE0662818D06728BA
:104CC0007AD136E00021112F01DB112000E0781CA1
:104CD000CDE9000104A90CA8FFF7EEFCDDE90D0108
:104CE0000C9A4FF0000B07F10109109200914EE071
:104CF0004FF000400097CDE9011004A90CA8FFF780
:104D0000DBFCDDE90D020C9B0F994FF0000B914687
:104D10001093009211B9791C00EB0109B7EB09005F
:104D200003D4C0F1FF3B07F10109A9EB0700019093
:104D300042E0012F00DA01270021112F01DD1120AF
:104D400000E03846CDE9000104A90CA8FFF7B4FC47
:104D5000DDE90D010C9A00914FF0000BB94610925D
:104D600021070FD4009A4A4503DA914601E0A9F1E0
:104D70000109B9F1010F05DD109AA9F10101515C9A
:104D80003029F4D0B84202DA10F1040F03DA01211D
:104D9000CDE9011010E0002803DC8344A9EB0001F9
:104DA00002E0411C494500DD8946A0EB0B00401C98
:104DB00001904FF000400290200705D4019848452B
:104DC00002DB4FF0FF30019000208DF84B0002987D
:104DD0000DF14B07B0F1004F25D002200C902B2095
:104DE0000D90029800280CDA404202902D200D9080
:104DF00007E00A210298FBF76BFC3031029007F8BC
:104E0000011D0C99481E0C900029F2DC0298002824
:104E1000EFD1791E0D980870307800F0200040F036
:104E2000450007F8020D11A8C01BC01D0290139881
:104E3000007800B1012000EB0901019801EBE0715D
:104E4000029801440398401A401E0390E00306D4E0
:104E500053462146179A039800F05CF805441398CE
:104E6000007818B15246179990476D1CE00323D57E
:104E700053462146179A039800F04CF805441BE06E
:104E8000BBF1000F07DB0098584504DD1098179917
:104E900010F80B0001E01799302052469047019816
:104EA0000BF1010B401E05F10105019004D12E20EC
:104EB0005246179990476D1CB9F10001A9F10109FB
:104EC000DEDC05E017F8010B5246179990476D1C80
:104ED0000299481E02900029F4DC53462146179A95
:104EE00003989EE62D0000002B000000200000002B
:104EF0002DE9F041044600251E461746880404D4D7
:104F000005E039462020B0476D1C641EF9D52846BF
:104F1000BDE8F0812DE9F041044600251E4690468B
:104F2000C80301D5302700E02027880404D505E018
:104F300041463846B0476D1C641EF9D52846BDE889
:104F4000F0810A68531C0B60107070472DE9F04720
:104F50004FF0684202EB40030C460546B3F1654F43
:104F60003CBF02EB4102B2F1654F80F0CD8000BF43
:104F7000C0F3C752C1F3C753D21A1B2A06DD10F083
:104F8000004F14BF87488848BDE8F08712F11A0F18
:104F90002FDA11F0004F06D010F0004F0CBF8348FD
:104FA0008348BDE8F08721462846FBF7CBF9064643
:104FB000FFF742FB042808BFFFF763FB2846FFF713
:104FC0003BFB05462046FFF737FB04463046FFF71C
:104FD00033FB042D18BF052D08D1042C18BF052C58
:104FE00004D1002804BF0220FFF760FB3046BDE873
:104FF000F0874200B2EB410F25D910F0004F19BFE6
:105000006C4F6D4E6D4F6E4E224685F00044154636
:105010000A4680F0004110460A1A5200B2F1807F21
:105020003ED248406749DFF8A0A110F0004F18D0E9
:105030004FF03F483846FBF74DF90746514630469A
:10504000FBF748F917E011F0004F04BF0026374680
:10505000E2D010F0004F19BF5C4F5D4E5D4F5E4EC9
:10506000DAE74FF07C583846FBF7E2F8074651463E
:105070003046FBF7DDF8064641462846FBF730F997
:105080002146FBF7D5F8824621464046FBF728F932
:105090002946FBF722F95146FBF754F9044604E090
:1050A00021462846FBF74EF904460146FBF718F95E
:1050B00080464A49FBF714F94949FBF7B9F84146DC
:1050C000FBF70EF94749FBF7B3F84146FBF708F940
:1050D0004549FBF7ADF84146FBF702F94349FBF7B9
:1050E000A7F8054641462046FBF7FAF82946FBF7A4
:1050F000F7F83146FBF79CF82146FBF799F839465B
:10510000BDE8F047FBF794B84FF07F42B2EB400F99
:1051100028BFB2EB410F03D2BDE8F047FFF7AFBAAB
:1051200040EA01035B0008BF44F0FF410AD0B2EB44
:10513000400F08BFB2EB410F06D125F0804024F0AC
:10514000804105460C4613E7B2EB400F12BF5FEA01
:10515000410345F0FF4004F000413FF409AFB2EBDA
:10516000410F12BF5FEA400205F0004044F0FF41EA
:105170003FF4FEAE4A0092EA40033FF5F9AE002A42
:10518000ACBF4FF09F464FF03E563146FBF7A8F8B4
:10519000054631462046FBF7A3F80446284621463B
:1051A000E6E60000DB0FC9BFDB0FC93FDB0F49405C
:1051B000DB0F49C00000C9BF22AAFDB90000C93FEA
:1051C00022AAFD390060ED3EC30ACE37000049C077
:1051D00022AA7DBA0000494022AA7D3A2DAD65BDC4
:1051E0008FB8D53D0FB511BE61C84C3EA8AAAABE66
:1051F0002DE9F14F002186B089468A460E46884641
:105200000C460D468B463A4B002103F13802022032
:1052100000F071F9070068D13648C068FBF71EFA44
:10522000CDE900010290324804913830B0F9000015
:10523000FBF7EAF9049B029AFBF769F94A465346E1
:10524000FBF7BEF881468A46DDE90001CDE902019F
:1052500027483830B0F90200FBF7D6F98C46DDE973
:1052600002210B466146FBF752F932464346FBF7F3
:10527000A7F806461E4888463830B0F90400FBF708
:10528000C3F9DDE90023FBF742F922462B46FBF781
:1052900097F8044616480D46416A052088470BF1E9
:1052A000010BBBF1C80FAEDBDFF84CB000225B4650
:1052B00048465146FBF72BF9FBF7E3F90699002224
:1052C0005B46886130464146FBF721F9FBF7D9F987
:1052D000069900225B46C86120462946FBF717F96C
:1052E000FBF7CFF906990862384607B0BDE8F08FA2
:1052F000DC310020A4000020000069402DE9FC5FA3
:10530000484B8A46044603F13802A2F10C010320FF
:1053100000F0F1F8434D01902C35B5F90000FBF792
:1053200065F9DFF80491D9F808100E46FBF70AF882
:105330008046B5F90200FBF759F93146FBF702F850
:105340000746B5F90400FBF751F93146FAF7FAFFC1
:105350000C350646B5F90000FBF748F9D9F80C10F2
:105360008946FAF7EFFF0090B5F90200FBF73EF926
:105370004946FAF7E7FF8346B5F90400FBF736F92B
:105380004946FAF7DFFF294D81464FF0FF31286883
:1053900003F090FAC4F80080C4E90176BAF1000F76
:1053A00028D0234E00983146FAF79AFF214F8046C5
:1053B0003946A069FAF794FF4146FAF739FFA06130
:1053C00031465846FAF78CFF80463946E069FAF7CD
:1053D00087FF4146FAF72CFFE06131464846FAF76D
:1053E0007FFF06463946206AFAF77AFF3146FAF718
:1053F0001FFF2062A1690098FAF76CFFE060584631
:10540000E169FAF767FF20614846216AFAF762FF0F
:10541000002360611A461946286803F09FF8019836
:10542000BDE8FC9FDC310020A4000020F400002037
:105430000AD7233CA4707D3F7CB504460D46084640
:1054400000F0F6FF10B14FF0FF3138E02B46072295
:105450006946712000F035F801469DF80000207083
:105460009DF8010060709DF80200A0709DF8060094
:105470009DF80320800300B240EA8210C21700EBBF
:1054800092608011A0809DF806009DF8042080089D
:10549000800300B240EA8210C21700EB92608011D4
:1054A000E0809DF806009DF805200009800300B209
:1054B00040EA8210C21700EB9260801120810846FA
:1054C0007CBD30B433B1DC6924B13AB19D78012D93
:1054D00007D008E04FF0FF3030BC70476FF00B0092
:1054E000FAE740F080005D7813460A4601462846F8
:1054F000A44630BC6047F0B41446024602F00702EE
:105500000020950802F0030600D003204FF0FF3280
:10551000CBB1012E06D0022E09D0032E0DD0101FC4
:10552000F0BC704779B1F0BC1A4600F074BD54B1BC
:105530002146F0BC1A4600F01FBE24B119B1224624
:10554000F0BC00F09DBD1046EAE738B504460325DF
:1055500000F06EFF00281FD1A178012907D1234652
:10556000012269467F20FFF7ACFF002814D10021FB
:10557000217005E02346012219460020FFF7A1FF14
:105580006D1EEDB202D32178D129F3D110B9207864
:10559000D12802D06FF0020038BDFF20E070204615
:1055A00000F0C0F938BDF8B506460D460020717808
:1055B000441E07460E291CD2DFE801F0071C2E28E6
:1055C00028343A4640224C6F84A5284600F030FF2C
:1055D00070B96EB1341D2946204600F0E1FC002868
:1055E00007D12A4621463046BDE8F84000F093BA7C
:1055F0002046F8BD29463046BDE8F84002F019B80B
:1056000029463046BDE8F84001F072BF29463046D1
:10561000BDE8F84002F0ACB829463046BDE8F84095
:1056200002F06AB829463046BDE8F84001F0C5BF2F
:1056300029463046BDE8F84001F005BE294630460F
:10564000BDE8F84001F0D9BE29463046BDE8F84033
:1056500001F057BE284600F0EBFE0028C8D1002E0E
:10566000C6D08DF800702B46012269465120FFF705
:1056700028FF20B99DF8000040F010003AE0002813
:10568000B7D12946304602F0DFF80028B1D12946CB
:105690003046BDE8F84000F08FBE002DA8D0686A03
:1056A0000028A5D08DF800702B46012269465120B4
:1056B000FFF707FF0028E2D1317A9DF8000061F37F
:1056C000451017E0002D93D0686A002890D08DF81F
:1056D00000702B46012269465120FFF7F2FE002898
:1056E000CDD19DF80000317A20F04000C1F3400197
:1056F00040EA81108DF800002B46012269465120B6
:1057000000F05EF8BBE729463046BDE8F84002F0FD
:105710009BB8F8B5040015D0606A98B100208DF8E8
:10572000000020796FF00C05A0F11001022928D8A3
:10573000217A88421AD02146684601F093F8060083
:1057400003D011E04FF0FF30F8BD23460122211DA8
:105750007E2000F035F80646207A102802D1616AD2
:1057600005208847217921723000EDD1207B002669
:10577000142808D0152806D0172804D02E46304605
:10578000F8BD2846F8BD217C8842F8D02346012286
:1057900004F10C017E2000F013F80646207C14284A
:1057A00002D0172803D008E05020616A04E0207B73
:1057B000152802D1616A0A208847207B2074DEE721
:1057C0002DE9F0474FF000051C009046064689463B
:1057D0002F460BD0D4F820C0BCF1000F06D0B8F192
:1057E000000F06D0A078012806D007E04FF0FF3563
:1057F00028E06FF00B0525E006F07F06207A1128DF
:1058000002D0207C152818D10A46607843463146DC
:10581000E0470546616A0120884710E0256A09EBE8
:105820000702607801233146A847761C0546616A65
:10583000F6B2012088477F1CFFB24745EED30DB179
:105840006FF001052846BDE8F08738B504005DD04B
:10585000606A00285AD0002521466846009500F06D
:10586000E9F8002851D12346012269464020FFF77C
:10587000A7FF002849D161796172E179E17223467D
:10588000012241200DF10101FFF79AFF00283CD1D0
:10589000A179A17221466846009500F005F900281B
:1058A00033D12346012269464220FFF789FF0028B1
:1058B0002BD1617B6174E17BE1742346012243209B
:1058C0000DF10101FFF77CFF00281ED1A17B2046CE
:1058D000A174FFF71EFF002817D123468DF8005052
:1058E000012269460220FFF7ECFD9DF80010C1F38C
:1058F00043018DF8001001290BD002290CD0032997
:105900000DD0072901D16FF0080038BD4FF0FF30EE
:1059100038BD6FF0050038BD6FF0060038BD6FF080
:10592000070038BD38B504004FF0B6008DF8000010
:105930000DD0606A58B12346012269467E20FFF7E8
:105940003FFF0546616A012088471DB11FE04FF007
:10595000FF351CE0A078012807D1234601226946C3
:105960007F20FFF7AEFD050011D10220E071082174
:105970006171102222710322A271E07361731420FD
:1059800020730020A0736068A060E0682061284652
:1059900038BD2DE9FC4105460F461646104600F07D
:1059A00047FD4FF0FF3410B12046BDE8FC81304682
:1059B00000F03EFD0028F7D13346012201A97720EF
:1059C000FFF77FFD78B969799DF80400334661F3EC
:1059D000C7102979012261F386108DF8040001A90E
:1059E0007720FFF7EDFE0028DFD13346012269461C
:1059F0006920FFF766FD2A789DF80010002862F301
:105A000086116A7862F30511AA7862F38301EA7855
:105A100062F301018DF80010C7D1334601226946B7
:105A20006920FFF7CDFE0028BFD13146384602F08D
:105A300029F8BAE770B50D460B4604460146022226
:105A40004020FFF73EFD00282DD16979001F0C2969
:105A500029D86A7A914206D0227801F00F0122F00B
:105A60000F0211432170E97907291CD8EA7A914283
:105A700007D02278702322F0700203EA011111434B
:105A80002170A9790022641C0C290AD8A87A8142C5
:105A900008D0207801F00F0120F00F0001432170A1
:105AA00000E00246104670BD70B50D460B46044638
:105AB000014602224220FFF704FD00282AD1697B1B
:105AC000001F0D2926D86A7C914206D0227801F069
:105AD0000F0122F00F0211432170E97B022919D82E
